{
  "contractName": "Credit",
  "abi": [
    {
      "inputs": [
        {
          "internalType": "uint256",
          "name": "cost",
          "type": "uint256"
        }
      ],
      "name": "set_travel_cost",
      "outputs": [],
      "stateMutability": "nonpayable",
      "type": "function"
    },
    {
      "inputs": [
        {
          "internalType": "uint256",
          "name": "cost",
          "type": "uint256"
        }
      ],
      "name": "set_food_cost",
      "outputs": [],
      "stateMutability": "nonpayable",
      "type": "function"
    },
    {
      "inputs": [
        {
          "internalType": "uint256",
          "name": "cost",
          "type": "uint256"
        }
      ],
      "name": "set_stay_cost",
      "outputs": [],
      "stateMutability": "nonpayable",
      "type": "function"
    },
    {
      "inputs": [],
      "name": "get_remaining_balance",
      "outputs": [
        {
          "internalType": "uint256",
          "name": "",
          "type": "uint256"
        }
      ],
      "stateMutability": "nonpayable",
      "type": "function"
    }
  ],
  "bytecode": "0x608060405261271060005534801561001657600080fd5b50610271806100266000396000f3fe608060405234801561001057600080fd5b506004361061004c5760003560e01c806327aed68c1461005157806341d4ab411461006f5780634baa94b21461008b5780635b23fbce146100a7575b600080fd5b6100596100c3565b604051610066919061012b565b60405180910390f35b61008960048036038101906100849190610177565b6100f4565b005b6100a560048036038101906100a09190610177565b6100fe565b005b6100c160048036038101906100bc9190610177565b610108565b005b60006003546002546001546100d891906101d3565b6100e291906101d3565b6000546100ef9190610207565b905090565b8060028190555050565b8060038190555050565b8060018190555050565b6000819050919050565b61012581610112565b82525050565b6000602082019050610140600083018461011c565b92915050565b600080fd5b61015481610112565b811461015f57600080fd5b50565b6000813590506101718161014b565b92915050565b60006020828403121561018d5761018c610146565b5b600061019b84828501610162565b91505092915050565b7f4e487b7100000000000000000000000000000000000000000000000000000000600052601160045260246000fd5b60006101de82610112565b91506101e983610112565b9250828201905080821115610201576102006101a4565b5b92915050565b600061021282610112565b915061021d83610112565b9250828203905081811115610235576102346101a4565b5b9291505056fea2646970667358221220a46ad71a4d4e9ce61a04ca5fd5f6bdafa8c63fd4c03d15b16475ef2d7a00f4fb64736f6c63430008110033",
  "immutableReferences": {},
  "source": "\r\n//SPDX-License-Identifier : MIT\r\npragma solidity ^0.8.0;\r\ncontract Credit{\r\n\r\n    uint card_limit = 10000;\r\n    uint travel_cost;\r\n    uint food_cost;\r\n    uint stay_cost;\r\n\r\n    function set_travel_cost (uint cost) public {\r\n        travel_cost = cost;\r\n    }\r\n\r\n    function set_food_cost (uint cost) public {\r\n        food_cost = cost;\r\n    }\r\n    \r\n    function set_stay_cost (uint cost) public {\r\n        stay_cost = cost;\r\n    }\r\n\r\n    function get_remaining_balance() public returns (uint) {\r\n        return card_limit - (travel_cost + food_cost + stay_cost);\r\n    }\r\n    \r\n}",
  "sourcePath": "C:\\Users\\Admin\\Desktop\\7th_Semester\\BlockChainTechnology\\truffle_tutorial\\new\\contracts\\credit_limit.sol",
  "compiler": {
    "name": "solc",
    "version": "0.8.17+commit.8df45f5f.Emscripten.clang"
  },
  "schemaVersion": "3.4.10",
  "updatedAt": "2022-11-01T09:51:00.835Z",
  "devdoc": {
    "kind": "dev",
    "methods": {},
    "version": 1
  },
  "userdoc": {
    "kind": "user",
    "methods": {},
    "version": 1
  }
}